{
  "_format": "hh-sol-artifact-1",
  "contractName": "EtharbaDAO",
  "sourceName": "contracts/Contract.sol",
  "abi": [
    {
      "inputs": [
        {
          "internalType": "contract IERC20",
          "name": "_ethArbaToken",
          "type": "address"
        },
        {
          "internalType": "uint256",
          "name": "_initialFee",
          "type": "uint256"
        },
        {
          "internalType": "address",
          "name": "_treasury",
          "type": "address"
        }
      ],
      "stateMutability": "nonpayable",
      "type": "constructor"
    },
    {
      "anonymous": false,
      "inputs": [
        {
          "indexed": false,
          "internalType": "address",
          "name": "delegator",
          "type": "address"
        },
        {
          "indexed": false,
          "internalType": "address",
          "name": "delegatee",
          "type": "address"
        }
      ],
      "name": "DelegateChanged",
      "type": "event"
    },
    {
      "anonymous": false,
      "inputs": [
        {
          "indexed": false,
          "internalType": "address",
          "name": "to",
          "type": "address"
        },
        {
          "indexed": false,
          "internalType": "uint256",
          "name": "amount",
          "type": "uint256"
        }
      ],
      "name": "FeeWithdrawn",
      "type": "event"
    },
    {
      "anonymous": false,
      "inputs": [
        {
          "indexed": false,
          "internalType": "uint8",
          "name": "version",
          "type": "uint8"
        }
      ],
      "name": "Initialized",
      "type": "event"
    },
    {
      "anonymous": false,
      "inputs": [
        {
          "indexed": true,
          "internalType": "address",
          "name": "previousOwner",
          "type": "address"
        },
        {
          "indexed": true,
          "internalType": "address",
          "name": "newOwner",
          "type": "address"
        }
      ],
      "name": "OwnershipTransferred",
      "type": "event"
    },
    {
      "anonymous": false,
      "inputs": [
        {
          "indexed": false,
          "internalType": "uint256",
          "name": "id",
          "type": "uint256"
        },
        {
          "indexed": false,
          "internalType": "address",
          "name": "proposer",
          "type": "address"
        },
        {
          "indexed": false,
          "internalType": "string",
          "name": "description",
          "type": "string"
        }
      ],
      "name": "ProposalCreated",
      "type": "event"
    },
    {
      "anonymous": false,
      "inputs": [
        {
          "indexed": false,
          "internalType": "uint256",
          "name": "id",
          "type": "uint256"
        }
      ],
      "name": "ProposalExecuted",
      "type": "event"
    },
    {
      "anonymous": false,
      "inputs": [
        {
          "indexed": false,
          "internalType": "uint256",
          "name": "newFee",
          "type": "uint256"
        }
      ],
      "name": "TransactionFeeChanged",
      "type": "event"
    },
    {
      "anonymous": false,
      "inputs": [
        {
          "indexed": false,
          "internalType": "address",
          "name": "voter",
          "type": "address"
        },
        {
          "indexed": false,
          "internalType": "uint256",
          "name": "proposalId",
          "type": "uint256"
        },
        {
          "indexed": false,
          "internalType": "bool",
          "name": "vote",
          "type": "bool"
        }
      ],
      "name": "Voted",
      "type": "event"
    },
    {
      "inputs": [
        {
          "internalType": "string",
          "name": "_description",
          "type": "string"
        }
      ],
      "name": "createProposal",
      "outputs": [],
      "stateMutability": "nonpayable",
      "type": "function"
    },
    {
      "inputs": [
        {
          "internalType": "address",
          "name": "",
          "type": "address"
        }
      ],
      "name": "delegate",
      "outputs": [
        {
          "internalType": "address",
          "name": "",
          "type": "address"
        }
      ],
      "stateMutability": "view",
      "type": "function"
    },
    {
      "inputs": [
        {
          "internalType": "address",
          "name": "_delegatee",
          "type": "address"
        }
      ],
      "name": "delegateVotingPower",
      "outputs": [],
      "stateMutability": "nonpayable",
      "type": "function"
    },
    {
      "inputs": [
        {
          "internalType": "address",
          "name": "",
          "type": "address"
        }
      ],
      "name": "delegatedVotes",
      "outputs": [
        {
          "internalType": "uint256",
          "name": "",
          "type": "uint256"
        }
      ],
      "stateMutability": "view",
      "type": "function"
    },
    {
      "inputs": [],
      "name": "ethArbaToken",
      "outputs": [
        {
          "internalType": "contract IERC20",
          "name": "",
          "type": "address"
        }
      ],
      "stateMutability": "view",
      "type": "function"
    },
    {
      "inputs": [
        {
          "internalType": "uint256",
          "name": "_proposalId",
          "type": "uint256"
        }
      ],
      "name": "executeProposal",
      "outputs": [],
      "stateMutability": "nonpayable",
      "type": "function"
    },
    {
      "inputs": [
        {
          "internalType": "address",
          "name": "voter",
          "type": "address"
        }
      ],
      "name": "getVotingPower",
      "outputs": [
        {
          "internalType": "uint256",
          "name": "",
          "type": "uint256"
        }
      ],
      "stateMutability": "view",
      "type": "function"
    },
    {
      "inputs": [
        {
          "internalType": "contract IERC20",
          "name": "_ethArbaToken",
          "type": "address"
        },
        {
          "internalType": "uint256",
          "name": "_initialFee",
          "type": "uint256"
        },
        {
          "internalType": "address",
          "name": "_treasury",
          "type": "address"
        }
      ],
      "name": "initialize",
      "outputs": [],
      "stateMutability": "nonpayable",
      "type": "function"
    },
    {
      "inputs": [],
      "name": "nextProposalId",
      "outputs": [
        {
          "internalType": "uint256",
          "name": "",
          "type": "uint256"
        }
      ],
      "stateMutability": "view",
      "type": "function"
    },
    {
      "inputs": [],
      "name": "owner",
      "outputs": [
        {
          "internalType": "address",
          "name": "",
          "type": "address"
        }
      ],
      "stateMutability": "view",
      "type": "function"
    },
    {
      "inputs": [
        {
          "internalType": "uint256",
          "name": "_amount",
          "type": "uint256"
        }
      ],
      "name": "processTransactionFee",
      "outputs": [],
      "stateMutability": "nonpayable",
      "type": "function"
    },
    {
      "inputs": [
        {
          "internalType": "uint256",
          "name": "",
          "type": "uint256"
        }
      ],
      "name": "proposals",
      "outputs": [
        {
          "internalType": "uint256",
          "name": "id",
          "type": "uint256"
        },
        {
          "internalType": "address",
          "name": "proposer",
          "type": "address"
        },
        {
          "internalType": "string",
          "name": "description",
          "type": "string"
        },
        {
          "internalType": "uint256",
          "name": "voteCountFor",
          "type": "uint256"
        },
        {
          "internalType": "uint256",
          "name": "voteCountAgainst",
          "type": "uint256"
        },
        {
          "internalType": "uint256",
          "name": "endTime",
          "type": "uint256"
        },
        {
          "internalType": "bool",
          "name": "executed",
          "type": "bool"
        },
        {
          "internalType": "bool",
          "name": "exists",
          "type": "bool"
        }
      ],
      "stateMutability": "view",
      "type": "function"
    },
    {
      "inputs": [],
      "name": "renounceOwnership",
      "outputs": [],
      "stateMutability": "nonpayable",
      "type": "function"
    },
    {
      "inputs": [
        {
          "internalType": "uint256",
          "name": "_fee",
          "type": "uint256"
        }
      ],
      "name": "setTransactionFee",
      "outputs": [],
      "stateMutability": "nonpayable",
      "type": "function"
    },
    {
      "inputs": [
        {
          "internalType": "address",
          "name": "",
          "type": "address"
        }
      ],
      "name": "tokenBalances",
      "outputs": [
        {
          "internalType": "uint256",
          "name": "",
          "type": "uint256"
        }
      ],
      "stateMutability": "view",
      "type": "function"
    },
    {
      "inputs": [],
      "name": "totalSupply",
      "outputs": [
        {
          "internalType": "uint256",
          "name": "",
          "type": "uint256"
        }
      ],
      "stateMutability": "view",
      "type": "function"
    },
    {
      "inputs": [],
      "name": "transactionFee",
      "outputs": [
        {
          "internalType": "uint256",
          "name": "",
          "type": "uint256"
        }
      ],
      "stateMutability": "view",
      "type": "function"
    },
    {
      "inputs": [
        {
          "internalType": "address",
          "name": "newOwner",
          "type": "address"
        }
      ],
      "name": "transferOwnership",
      "outputs": [],
      "stateMutability": "nonpayable",
      "type": "function"
    },
    {
      "inputs": [],
      "name": "treasury",
      "outputs": [
        {
          "internalType": "address",
          "name": "",
          "type": "address"
        }
      ],
      "stateMutability": "view",
      "type": "function"
    },
    {
      "inputs": [
        {
          "internalType": "uint256",
          "name": "_proposalId",
          "type": "uint256"
        },
        {
          "internalType": "bool",
          "name": "_vote",
          "type": "bool"
        }
      ],
      "name": "vote",
      "outputs": [],
      "stateMutability": "nonpayable",
      "type": "function"
    },
    {
      "inputs": [
        {
          "internalType": "address",
          "name": "",
          "type": "address"
        },
        {
          "internalType": "uint256",
          "name": "",
          "type": "uint256"
        }
      ],
      "name": "voted",
      "outputs": [
        {
          "internalType": "bool",
          "name": "",
          "type": "bool"
        }
      ],
      "stateMutability": "view",
      "type": "function"
    },
    {
      "inputs": [
        {
          "internalType": "uint256",
          "name": "_amount",
          "type": "uint256"
        }
      ],
      "name": "withdrawFees",
      "outputs": [],
      "stateMutability": "nonpayable",
      "type": "function"
    }
  ],
  "bytecode": "0x60806040523480156200001157600080fd5b5060405162002ff238038062002ff28339818101604052810190620000379190620001fb565b620000576200004b620000e960201b60201c565b620000f160201b60201c565b82600160006101000a81548173ffffffffffffffffffffffffffffffffffffffff021916908373ffffffffffffffffffffffffffffffffffffffff1602179055508160028190555080600460006101000a81548173ffffffffffffffffffffffffffffffffffffffff021916908373ffffffffffffffffffffffffffffffffffffffff160217905550505050620002f1565b600033905090565b60008060029054906101000a900473ffffffffffffffffffffffffffffffffffffffff16905081600060026101000a81548173ffffffffffffffffffffffffffffffffffffffff021916908373ffffffffffffffffffffffffffffffffffffffff1602179055508173ffffffffffffffffffffffffffffffffffffffff168173ffffffffffffffffffffffffffffffffffffffff167f8be0079c531659141344cd1fd0a4f28419497f9722a3daafe3b4186f6b6457e060405160405180910390a35050565b600081519050620001c781620002a3565b92915050565b600081519050620001de81620002bd565b92915050565b600081519050620001f581620002d7565b92915050565b6000806000606084860312156200021157600080fd5b60006200022186828701620001cd565b93505060206200023486828701620001e4565b92505060406200024786828701620001b6565b9150509250925092565b60006200025e8262000279565b9050919050565b6000620002728262000251565b9050919050565b600073ffffffffffffffffffffffffffffffffffffffff82169050919050565b6000819050919050565b620002ae8162000251565b8114620002ba57600080fd5b50565b620002c88162000265565b8114620002d457600080fd5b50565b620002e28162000299565b8114620002ee57600080fd5b50565b612cf180620003016000396000f3fe608060405234801561001057600080fd5b50600436106101425760003560e01c8063715018a6116100b8578063c350a1b51161007c578063c350a1b514610358578063c591aa9814610374578063c9d27afe146103a4578063d364d4d4146103c0578063f2fde38b146103f0578063f3ff955a1461040c57610142565b8063715018a6146102c45780638da5cb5b146102ce5780639ed3edf0146102ec5780639ff20f441461030a578063bb4d44361461032857610142565b80632ab09d141161010a5780632ab09d14146101f057806349c2a1a61461020e578063523fba7f1461022a5780635c19a95c1461025a5780635e318e071461028a57806361d027b3146102a657610142565b8063013cf08b14610147578063096a8ab71461017e5780630d61b5191461019a57806318160ddd146101b65780632122a093146101d4575b600080fd5b610161600480360381019061015c9190611f59565b610428565b60405161017598979695949392919061260c565b60405180910390f35b61019860048036038101906101939190611f59565b610532565b005b6101b460048036038101906101af9190611f59565b6106c7565b005b6101be610866565b6040516101cb91906125b1565b60405180910390f35b6101ee60048036038101906101e99190611f59565b61086c565b005b6101f86109ae565b60405161020591906125b1565b60405180910390f35b61022860048036038101906102239190611f14565b6109b4565b005b610244600480360381019061023f9190611e37565b610c8e565b60405161025191906125b1565b60405180910390f35b610274600480360381019061026f9190611e37565b610ca6565b60405161028191906122a5565b60405180910390f35b6102a4600480360381019061029f9190611f59565b610cd9565b005b6102ae610da8565b6040516102bb91906122a5565b60405180910390f35b6102cc610dce565b005b6102d6610de2565b6040516102e391906122a5565b60405180910390f35b6102f4610e0b565b60405161030191906125b1565b60405180910390f35b610312610e11565b60405161031f919061239b565b60405180910390f35b610342600480360381019061033d9190611e37565b610e37565b60405161034f91906125b1565b60405180910390f35b610372600480360381019061036d9190611ec5565b610f47565b005b61038e60048036038101906103899190611e60565b611109565b60405161039b9190612380565b60405180910390f35b6103be60048036038101906103b99190611fab565b611138565b005b6103da60048036038101906103d59190611e37565b61172b565b6040516103e791906125b1565b60405180910390f35b61040a60048036038101906104059190611e37565b611743565b005b61042660048036038101906104219190611e37565b6117c7565b005b60056020528060005260406000206000915090508060000154908060010160009054906101000a900473ffffffffffffffffffffffffffffffffffffffff16908060020180546104779061286d565b80601f01602080910402602001604051908101604052809291908181526020018280546104a39061286d565b80156104f05780601f106104c5576101008083540402835291602001916104f0565b820191906000526020600020905b8154815290600101906020018083116104d357829003601f168201915b5050505050908060030154908060040154908060050154908060060160009054906101000a900460ff16908060060160019054906101000a900460ff16905088565b61053a610de2565b73ffffffffffffffffffffffffffffffffffffffff163373ffffffffffffffffffffffffffffffffffffffff16148061060457506009600061057a610de2565b73ffffffffffffffffffffffffffffffffffffffff1673ffffffffffffffffffffffffffffffffffffffff16815260200190815260200160002060009054906101000a900473ffffffffffffffffffffffffffffffffffffffff1673ffffffffffffffffffffffffffffffffffffffff163373ffffffffffffffffffffffffffffffffffffffff16145b610643576040517f08c379a000000000000000000000000000000000000000000000000000000000815260040161063a90612591565b60405180910390fd5b6064811115610687576040517f08c379a000000000000000000000000000000000000000000000000000000000815260040161067e90612471565b60405180910390fd5b806002819055507e61ebed89d5ab28b433235a7cf26a30b1934b8915bb1280d917579c7d52e4de816040516106bc91906125b1565b60405180910390a150565b60006005600083815260200190815260200160002090508060060160019054906101000a900460ff1661072f576040517f08c379a0000000000000000000000000000000000000000000000000000000008152600401610726906124f1565b60405180910390fd5b8060050154421015610776576040517f08c379a000000000000000000000000000000000000000000000000000000000815260040161076d90612531565b60405180910390fd5b8060060160009054906101000a900460ff16156107c8576040517f08c379a00000000000000000000000000000000000000000000000000000000081526004016107bf90612411565b60405180910390fd5b60006107e582600401548360030154611b1c90919063ffffffff16565b905060006107fd600283611b3290919063ffffffff16565b90508083600301541115610843577f712ae1383f79ac853f8d882153778e0260ef8f03b504e2866e0593e04d2b291f8460405161083a91906125b1565b60405180910390a15b60018360060160006101000a81548160ff02191690831515021790555050505050565b60035481565b6000610896606461088860025485611b4890919063ffffffff16565b611b3290919063ffffffff16565b9050600160009054906101000a900473ffffffffffffffffffffffffffffffffffffffff1673ffffffffffffffffffffffffffffffffffffffff166323b872dd33600460009054906101000a900473ffffffffffffffffffffffffffffffffffffffff16846040518463ffffffff1660e01b8152600401610919939291906122e9565b602060405180830381600087803b15801561093357600080fd5b505af1158015610947573d6000803e3d6000fd5b505050506040513d601f19601f8201168201806040525081019061096b9190611e9c565b6109aa576040517f08c379a00000000000000000000000000000000000000000000000000000000081526004016109a1906124b1565b60405180910390fd5b5050565b60065481565b6000600160009054906101000a900473ffffffffffffffffffffffffffffffffffffffff1673ffffffffffffffffffffffffffffffffffffffff166370a08231336040518263ffffffff1660e01b8152600401610a1191906122a5565b60206040518083038186803b158015610a2957600080fd5b505afa158015610a3d573d6000803e3d6000fd5b505050506040513d601f19601f82011682018060405250810190610a619190611f82565b11610aa1576040517f08c379a0000000000000000000000000000000000000000000000000000000008152600401610a9890612491565b60405180910390fd5b600060065490506040518061010001604052808281526020013373ffffffffffffffffffffffffffffffffffffffff16815260200184848080601f016020809104026020016040519081016040528093929190818152602001838380828437600081840152601f19601f820116905080830192505050505050508152602001600081526020016000815260200162093a8042610b3d91906126ad565b815260200160001515815260200160011515815250600560008381526020019081526020016000206000820151816000015560208201518160010160006101000a81548173ffffffffffffffffffffffffffffffffffffffff021916908373ffffffffffffffffffffffffffffffffffffffff1602179055506040820151816002019080519060200190610bd2929190611ccc565b50606082015181600301556080820151816004015560a0820151816005015560c08201518160060160006101000a81548160ff02191690831515021790555060e08201518160060160016101000a81548160ff02191690831515021790555090505060066000815480929190610c479061289f565b91905055507f7585f467599d0f008985f231af99293be388626ac16ca59505c2f8f88969cd6381338585604051610c8194939291906125cc565b60405180910390a1505050565b60076020528060005260406000206000915090505481565b60096020528060005260406000206000915054906101000a900473ffffffffffffffffffffffffffffffffffffffff1681565b610ce1611b5e565b600460009054906101000a900473ffffffffffffffffffffffffffffffffffffffff1673ffffffffffffffffffffffffffffffffffffffff166108fc829081150290604051600060405180830381858888f19350505050158015610d49573d6000803e3d6000fd5b507f78473f3f373f7673597f4f0fa5873cb4d375fea6d4339ad6b56dbd411513cb3f600460009054906101000a900473ffffffffffffffffffffffffffffffffffffffff1682604051610d9d929190612320565b60405180910390a150565b600460009054906101000a900473ffffffffffffffffffffffffffffffffffffffff1681565b610dd6611b5e565b610de06000611bdc565b565b60008060029054906101000a900473ffffffffffffffffffffffffffffffffffffffff16905090565b60025481565b600160009054906101000a900473ffffffffffffffffffffffffffffffffffffffff1681565b600080600160009054906101000a900473ffffffffffffffffffffffffffffffffffffffff1673ffffffffffffffffffffffffffffffffffffffff166370a08231846040518263ffffffff1660e01b8152600401610e9591906122a5565b60206040518083038186803b158015610ead57600080fd5b505afa158015610ec1573d6000803e3d6000fd5b505050506040513d601f19601f82011682018060405250810190610ee59190611f82565b90506000600a60008573ffffffffffffffffffffffffffffffffffffffff1673ffffffffffffffffffffffffffffffffffffffff168152602001908152602001600020549050610f3e8183611b1c90919063ffffffff16565b92505050919050565b60008060019054906101000a900460ff16159050808015610f785750600160008054906101000a900460ff1660ff16105b80610fa55750610f8730611ca1565b158015610fa45750600160008054906101000a900460ff1660ff16145b5b610fe4576040517f08c379a0000000000000000000000000000000000000000000000000000000008152600401610fdb906124d1565b60405180910390fd5b60016000806101000a81548160ff021916908360ff1602179055508015611021576001600060016101000a81548160ff0219169083151502179055505b83600160006101000a81548173ffffffffffffffffffffffffffffffffffffffff021916908373ffffffffffffffffffffffffffffffffffffffff1602179055508260028190555081600460006101000a81548173ffffffffffffffffffffffffffffffffffffffff021916908373ffffffffffffffffffffffffffffffffffffffff16021790555080156111035760008060016101000a81548160ff0219169083151502179055507f7f26b83ff96e1f2b6a682f133852f6798a09c465da95921460cefb384740249860016040516110fa91906123b6565b60405180910390a15b50505050565b60086020528160005260406000206020528060005260406000206000915091509054906101000a900460ff1681565b336000600160009054906101000a900473ffffffffffffffffffffffffffffffffffffffff1673ffffffffffffffffffffffffffffffffffffffff166370a08231836040518263ffffffff1660e01b815260040161119691906122a5565b60206040518083038186803b1580156111ae57600080fd5b505afa1580156111c2573d6000803e3d6000fd5b505050506040513d601f19601f820116820180604052508101906111e69190611f82565b118061127e5750600073ffffffffffffffffffffffffffffffffffffffff16600960008373ffffffffffffffffffffffffffffffffffffffff1673ffffffffffffffffffffffffffffffffffffffff16815260200190815260200160002060009054906101000a900473ffffffffffffffffffffffffffffffffffffffff1673ffffffffffffffffffffffffffffffffffffffff1614155b6112bd576040517f08c379a00000000000000000000000000000000000000000000000000000000081526004016112b490612451565b60405180910390fd5b60006005600085815260200190815260200160002090508060060160019054906101000a900460ff16611325576040517f08c379a000000000000000000000000000000000000000000000000000000000815260040161131c906124f1565b60405180910390fd5b8060050154421061136b576040517f08c379a000000000000000000000000000000000000000000000000000000000815260040161136290612551565b60405180910390fd5b600860003373ffffffffffffffffffffffffffffffffffffffff1673ffffffffffffffffffffffffffffffffffffffff168152602001908152602001600020600085815260200190815260200160002060009054906101000a900460ff1615611409576040517f08c379a000000000000000000000000000000000000000000000000000000000815260040161140090612571565b60405180910390fd5b6000600160009054906101000a900473ffffffffffffffffffffffffffffffffffffffff1673ffffffffffffffffffffffffffffffffffffffff166370a08231336040518263ffffffff1660e01b815260040161146691906122a5565b60206040518083038186803b15801561147e57600080fd5b505afa158015611492573d6000803e3d6000fd5b505050506040513d601f19601f820116820180604052508101906114b69190611f82565b90506000819050600073ffffffffffffffffffffffffffffffffffffffff16600960003373ffffffffffffffffffffffffffffffffffffffff1673ffffffffffffffffffffffffffffffffffffffff16815260200190815260200160002060009054906101000a900473ffffffffffffffffffffffffffffffffffffffff1673ffffffffffffffffffffffffffffffffffffffff16146115f257600a6000600960003373ffffffffffffffffffffffffffffffffffffffff1673ffffffffffffffffffffffffffffffffffffffff16815260200190815260200160002060009054906101000a900473ffffffffffffffffffffffffffffffffffffffff1673ffffffffffffffffffffffffffffffffffffffff1673ffffffffffffffffffffffffffffffffffffffff1681526020019081526020016000205490505b60008111611635576040517f08c379a000000000000000000000000000000000000000000000000000000000815260040161162c90612431565b60405180910390fd5b6001600860003373ffffffffffffffffffffffffffffffffffffffff1673ffffffffffffffffffffffffffffffffffffffff168152602001908152602001600020600088815260200190815260200160002060006101000a81548160ff02191690831515021790555084156116c8576116bb818460030154611b1c90919063ffffffff16565b83600301819055506116e8565b6116df818460040154611b1c90919063ffffffff16565b83600401819055505b7f749addf8eadeff63c43be59c27331be5c6d4fc9e82bbfbcf162321c9b35a95b433878760405161171b93929190612349565b60405180910390a1505050505050565b600a6020528060005260406000206000915090505481565b61174b611b5e565b600073ffffffffffffffffffffffffffffffffffffffff168173ffffffffffffffffffffffffffffffffffffffff1614156117bb576040517f08c379a00000000000000000000000000000000000000000000000000000000081526004016117b2906123f1565b60405180910390fd5b6117c481611bdc565b50565b6000600160009054906101000a900473ffffffffffffffffffffffffffffffffffffffff1673ffffffffffffffffffffffffffffffffffffffff166370a08231336040518263ffffffff1660e01b815260040161182491906122a5565b60206040518083038186803b15801561183c57600080fd5b505afa158015611850573d6000803e3d6000fd5b505050506040513d601f19601f820116820180604052508101906118749190611f82565b116118b4576040517f08c379a00000000000000000000000000000000000000000000000000000000081526004016118ab90612491565b60405180910390fd5b3373ffffffffffffffffffffffffffffffffffffffff168173ffffffffffffffffffffffffffffffffffffffff161415611923576040517f08c379a000000000000000000000000000000000000000000000000000000000815260040161191a906123d1565b60405180910390fd5b80600960003373ffffffffffffffffffffffffffffffffffffffff1673ffffffffffffffffffffffffffffffffffffffff16815260200190815260200160002060006101000a81548173ffffffffffffffffffffffffffffffffffffffff021916908373ffffffffffffffffffffffffffffffffffffffff160217905550611a9d600160009054906101000a900473ffffffffffffffffffffffffffffffffffffffff1673ffffffffffffffffffffffffffffffffffffffff166370a08231336040518263ffffffff1660e01b81526004016119ff91906122a5565b60206040518083038186803b158015611a1757600080fd5b505afa158015611a2b573d6000803e3d6000fd5b505050506040513d601f19601f82011682018060405250810190611a4f9190611f82565b600a60008473ffffffffffffffffffffffffffffffffffffffff1673ffffffffffffffffffffffffffffffffffffffff16815260200190815260200160002054611b1c90919063ffffffff16565b600a60008373ffffffffffffffffffffffffffffffffffffffff1673ffffffffffffffffffffffffffffffffffffffff168152602001908152602001600020819055507fef9fc1dee6010109e6e3b21e51d44028e246dbad8a5a71ea192a30b19e1f457f3382604051611b119291906122c0565b60405180910390a150565b60008183611b2a91906126ad565b905092915050565b60008183611b409190612703565b905092915050565b60008183611b569190612734565b905092915050565b611b66611cc4565b73ffffffffffffffffffffffffffffffffffffffff16611b84610de2565b73ffffffffffffffffffffffffffffffffffffffff1614611bda576040517f08c379a0000000000000000000000000000000000000000000000000000000008152600401611bd190612511565b60405180910390fd5b565b60008060029054906101000a900473ffffffffffffffffffffffffffffffffffffffff16905081600060026101000a81548173ffffffffffffffffffffffffffffffffffffffff021916908373ffffffffffffffffffffffffffffffffffffffff1602179055508173ffffffffffffffffffffffffffffffffffffffff168173ffffffffffffffffffffffffffffffffffffffff167f8be0079c531659141344cd1fd0a4f28419497f9722a3daafe3b4186f6b6457e060405160405180910390a35050565b6000808273ffffffffffffffffffffffffffffffffffffffff163b119050919050565b600033905090565b828054611cd89061286d565b90600052602060002090601f016020900481019282611cfa5760008555611d41565b82601f10611d1357805160ff1916838001178555611d41565b82800160010185558215611d41579182015b82811115611d40578251825591602001919060010190611d25565b5b509050611d4e9190611d52565b5090565b5b80821115611d6b576000816000905550600101611d53565b5090565b600081359050611d7e81612c5f565b92915050565b600081359050611d9381612c76565b92915050565b600081519050611da881612c76565b92915050565b600081359050611dbd81612c8d565b92915050565b60008083601f840112611dd557600080fd5b8235905067ffffffffffffffff811115611dee57600080fd5b602083019150836001820283011115611e0657600080fd5b9250929050565b600081359050611e1c81612ca4565b92915050565b600081519050611e3181612ca4565b92915050565b600060208284031215611e4957600080fd5b6000611e5784828501611d6f565b91505092915050565b60008060408385031215611e7357600080fd5b6000611e8185828601611d6f565b9250506020611e9285828601611e0d565b9150509250929050565b600060208284031215611eae57600080fd5b6000611ebc84828501611d99565b91505092915050565b600080600060608486031215611eda57600080fd5b6000611ee886828701611dae565b9350506020611ef986828701611e0d565b9250506040611f0a86828701611d6f565b9150509250925092565b60008060208385031215611f2757600080fd5b600083013567ffffffffffffffff811115611f4157600080fd5b611f4d85828601611dc3565b92509250509250929050565b600060208284031215611f6b57600080fd5b6000611f7984828501611e0d565b91505092915050565b600060208284031215611f9457600080fd5b6000611fa284828501611e22565b91505092915050565b60008060408385031215611fbe57600080fd5b6000611fcc85828601611e0d565b9250506020611fdd85828601611d84565b9150509250929050565b611ff08161278e565b82525050565b611fff816127a0565b82525050565b61200e816127f5565b82525050565b61201d81612819565b82525050565b600061202f838561269c565b935061203c83858461282b565b61204583612975565b840190509392505050565b600061205b82612691565b612065818561269c565b935061207581856020860161283a565b61207e81612975565b840191505092915050565b6000612096601b8361269c565b91506120a182612986565b602082019050919050565b60006120b960268361269c565b91506120c4826129af565b604082019050919050565b60006120dc60198361269c565b91506120e7826129fe565b602082019050919050565b60006120ff601b8361269c565b915061210a82612a27565b602082019050919050565b6000612122600f8361269c565b915061212d82612a50565b602082019050919050565b6000612145601c8361269c565b915061215082612a79565b602082019050919050565b600061216860278361269c565b915061217382612aa2565b604082019050919050565b600061218b60138361269c565b915061219682612af1565b602082019050919050565b60006121ae602e8361269c565b91506121b982612b1a565b604082019050919050565b60006121d160178361269c565b91506121dc82612b69565b602082019050919050565b60006121f460208361269c565b91506121ff82612b92565b602082019050919050565b6000612217601e8361269c565b915061222282612bbb565b602082019050919050565b600061223a60178361269c565b915061224582612be4565b602082019050919050565b600061225d601e8361269c565b915061226882612c0d565b602082019050919050565b6000612280600e8361269c565b915061228b82612c36565b602082019050919050565b61229f816127de565b82525050565b60006020820190506122ba6000830184611fe7565b92915050565b60006040820190506122d56000830185611fe7565b6122e26020830184611fe7565b9392505050565b60006060820190506122fe6000830186611fe7565b61230b6020830185611fe7565b6123186040830184612296565b949350505050565b60006040820190506123356000830185611fe7565b6123426020830184612296565b9392505050565b600060608201905061235e6000830186611fe7565b61236b6020830185612296565b6123786040830184611ff6565b949350505050565b60006020820190506123956000830184611ff6565b92915050565b60006020820190506123b06000830184612005565b92915050565b60006020820190506123cb6000830184612014565b92915050565b600060208201905081810360008301526123ea81612089565b9050919050565b6000602082019050818103600083015261240a816120ac565b9050919050565b6000602082019050818103600083015261242a816120cf565b9050919050565b6000602082019050818103600083015261244a816120f2565b9050919050565b6000602082019050818103600083015261246a81612115565b9050919050565b6000602082019050818103600083015261248a81612138565b9050919050565b600060208201905081810360008301526124aa8161215b565b9050919050565b600060208201905081810360008301526124ca8161217e565b9050919050565b600060208201905081810360008301526124ea816121a1565b9050919050565b6000602082019050818103600083015261250a816121c4565b9050919050565b6000602082019050818103600083015261252a816121e7565b9050919050565b6000602082019050818103600083015261254a8161220a565b9050919050565b6000602082019050818103600083015261256a8161222d565b9050919050565b6000602082019050818103600083015261258a81612250565b9050919050565b600060208201905081810360008301526125aa81612273565b9050919050565b60006020820190506125c66000830184612296565b92915050565b60006060820190506125e16000830187612296565b6125ee6020830186611fe7565b8181036040830152612601818486612023565b905095945050505050565b600061010082019050612622600083018b612296565b61262f602083018a611fe7565b81810360408301526126418189612050565b90506126506060830188612296565b61265d6080830187612296565b61266a60a0830186612296565b61267760c0830185611ff6565b61268460e0830184611ff6565b9998505050505050505050565b600081519050919050565b600082825260208201905092915050565b60006126b8826127de565b91506126c3836127de565b9250827fffffffffffffffffffffffffffffffffffffffffffffffffffffffffffffffff038211156126f8576126f76128e8565b5b828201905092915050565b600061270e826127de565b9150612719836127de565b92508261272957612728612917565b5b828204905092915050565b600061273f826127de565b915061274a836127de565b9250817fffffffffffffffffffffffffffffffffffffffffffffffffffffffffffffffff0483118215151615612783576127826128e8565b5b828202905092915050565b6000612799826127be565b9050919050565b60008115159050919050565b60006127b78261278e565b9050919050565b600073ffffffffffffffffffffffffffffffffffffffff82169050919050565b6000819050919050565b600060ff82169050919050565b600061280082612807565b9050919050565b6000612812826127be565b9050919050565b6000612824826127e8565b9050919050565b82818337600083830152505050565b60005b8381101561285857808201518184015260208101905061283d565b83811115612867576000848401525b50505050565b6000600282049050600182168061288557607f821691505b6020821081141561289957612898612946565b5b50919050565b60006128aa826127de565b91507fffffffffffffffffffffffffffffffffffffffffffffffffffffffffffffffff8214156128dd576128dc6128e8565b5b600182019050919050565b7f4e487b7100000000000000000000000000000000000000000000000000000000600052601160045260246000fd5b7f4e487b7100000000000000000000000000000000000000000000000000000000600052601260045260246000fd5b7f4e487b7100000000000000000000000000000000000000000000000000000000600052602260045260246000fd5b6000601f19601f8301169050919050565b7f43616e6e6f742064656c656761746520746f20796f757273656c660000000000600082015250565b7f4f776e61626c653a206e6577206f776e657220697320746865207a65726f206160008201527f6464726573730000000000000000000000000000000000000000000000000000602082015250565b7f50726f706f73616c20616c726561647920657865637574656400000000000000600082015250565b7f496e73756666696369656e7420746f6b656e7320746f20766f74650000000000600082015250565b7f4e6f20766f74696e6720706f7765720000000000000000000000000000000000600082015250565b7f4665652063616e6e6f74206265206d6f7265207468616e203130302500000000600082015250565b7f4d7573742068617665204574686172626120746f6b656e7320746f207061727460008201527f6963697061746500000000000000000000000000000000000000000000000000602082015250565b7f466565207472616e73666572206661696c656400000000000000000000000000600082015250565b7f496e697469616c697a61626c653a20636f6e747261637420697320616c72656160008201527f647920696e697469616c697a6564000000000000000000000000000000000000602082015250565b7f50726f706f73616c20646f6573206e6f74206578697374000000000000000000600082015250565b7f4f776e61626c653a2063616c6c6572206973206e6f7420746865206f776e6572600082015250565b7f566f74696e6720706572696f64206861736e277420656e646564207965740000600082015250565b7f566f74696e6720706572696f642068617320656e646564000000000000000000600082015250565b7f416c726561647920766f746564206f6e20746869732070726f706f73616c0000600082015250565b7f4e6f7420617574686f72697a6564000000000000000000000000000000000000600082015250565b612c688161278e565b8114612c7357600080fd5b50565b612c7f816127a0565b8114612c8a57600080fd5b50565b612c96816127ac565b8114612ca157600080fd5b50565b612cad816127de565b8114612cb857600080fd5b5056fea264697066735822122041d04f37298f5ac580ce7735688639c976b64f18f073cff858d57d7fb7c6af9264736f6c63430008020033",
  "linkReferences": {},
  "deployedLinkReferences": {}
}